{
  "_format": "hh-sol-artifact-1",
  "contractName": "Purchase",
  "sourceName": "contracts/purchase.sol",
  "abi": [
    {
      "inputs": [],
      "stateMutability": "payable",
      "type": "constructor"
    },
    {
      "inputs": [],
      "name": "InvalidState",
      "type": "error"
    },
    {
      "inputs": [],
      "name": "OnlyBuyer",
      "type": "error"
    },
    {
      "inputs": [],
      "name": "OnlySeller",
      "type": "error"
    },
    {
      "inputs": [],
      "name": "ValueNotEven",
      "type": "error"
    },
    {
      "anonymous": false,
      "inputs": [],
      "name": "Aborted",
      "type": "event"
    },
    {
      "anonymous": false,
      "inputs": [],
      "name": "ItemReceived",
      "type": "event"
    },
    {
      "anonymous": false,
      "inputs": [],
      "name": "PurchaseConfirmed",
      "type": "event"
    },
    {
      "anonymous": false,
      "inputs": [],
      "name": "SellerRefunded",
      "type": "event"
    },
    {
      "inputs": [],
      "name": "abort",
      "outputs": [],
      "stateMutability": "nonpayable",
      "type": "function"
    },
    {
      "inputs": [],
      "name": "buyer",
      "outputs": [
        {
          "internalType": "address payable",
          "name": "",
          "type": "address"
        }
      ],
      "stateMutability": "view",
      "type": "function"
    },
    {
      "inputs": [],
      "name": "confirmPurchase",
      "outputs": [],
      "stateMutability": "payable",
      "type": "function"
    },
    {
      "inputs": [],
      "name": "confirmReceived",
      "outputs": [],
      "stateMutability": "nonpayable",
      "type": "function"
    },
    {
      "inputs": [],
      "name": "refundSeller",
      "outputs": [],
      "stateMutability": "nonpayable",
      "type": "function"
    },
    {
      "inputs": [],
      "name": "seller",
      "outputs": [
        {
          "internalType": "address payable",
          "name": "",
          "type": "address"
        }
      ],
      "stateMutability": "view",
      "type": "function"
    },
    {
      "inputs": [],
      "name": "state",
      "outputs": [
        {
          "internalType": "enum Purchase.State",
          "name": "",
          "type": "uint8"
        }
      ],
      "stateMutability": "view",
      "type": "function"
    },
    {
      "inputs": [],
      "name": "value",
      "outputs": [
        {
          "internalType": "uint256",
          "name": "",
          "type": "uint256"
        }
      ],
      "stateMutability": "view",
      "type": "function"
    }
  ],
  "bytecode": "0x6080604052600180546001600160a01b03191633179055610021600234610056565b60008190553490610033906002610076565b1461005157604051635f1f262160e11b815260040160405180910390fd5b6100a1565b60008261007157634e487b7160e01b81526012600452602481fd5b500490565b600081600019048311821515161561009c57634e487b7160e01b81526011600452602481fd5b500290565b61058f806100b06000396000f3fe60806040526004361061007b5760003560e01c806373fac6f01161004e57806373fac6f014610118578063c19d93fb1461012d578063c7981b1b1461015b578063d69606971461017057600080fd5b806308551a531461008057806335a063b4146100bd5780633fa4f245146100d45780637150d8ae146100f8575b600080fd5b34801561008c57600080fd5b506001546100a0906001600160a01b031681565b6040516001600160a01b0390911681526020015b60405180910390f35b3480156100c957600080fd5b506100d2610178565b005b3480156100e057600080fd5b506100ea60005481565b6040519081526020016100b4565b34801561010457600080fd5b506002546100a0906001600160a01b031681565b34801561012457600080fd5b506100d2610269565b34801561013957600080fd5b5060025461014e90600160a01b900460ff1681565b6040516100b49190610506565b34801561016757600080fd5b506100d2610356565b6100d2610453565b6001546001600160a01b031633146101a3576040516342e8fb9360e11b815260040160405180910390fd5b600080600254600160a01b900460ff1660038111156101d257634e487b7160e01b600052602160045260246000fd5b146101f05760405163baf3f0f760e01b815260040160405180910390fd5b6040517f72c874aeff0b183a56e2b79c71b46e1aed4dee5e09862134b8821ba2fddbf8bf90600090a16002805460ff60a01b1916600360a01b1790556001546040516001600160a01b03909116904780156108fc02916000818181858888f19350505050158015610265573d6000803e3d6000fd5b5050565b6002546001600160a01b03163314610294576040516386efbb5560e01b815260040160405180910390fd5b600180600254600160a01b900460ff1660038111156102c357634e487b7160e01b600052602160045260246000fd5b146102e15760405163baf3f0f760e01b815260040160405180910390fd5b6040517fe89152acd703c9d8c7d28829d443260b411454d45394e7995815140c8cbcbcf790600090a160028054600160a11b60ff60a01b19821617909155600080546040516001600160a01b03909316926108fc82150292818181858888f19350505050158015610265573d6000803e3d6000fd5b6001546001600160a01b03163314610381576040516342e8fb9360e11b815260040160405180910390fd5b600280600254600160a01b900460ff1660038111156103b057634e487b7160e01b600052602160045260246000fd5b146103ce5760405163baf3f0f760e01b815260040160405180910390fd5b6040517ffda69c32bcfdba840a167777906b173b607eb8b4d8853b97a80d26e613d858db90600090a16002805460ff60a01b1916600360a01b1790556001546000546001600160a01b03909116906108fc9061042b90600361052e565b6040518115909202916000818181858888f19350505050158015610265573d6000803e3d6000fd5b600080600254600160a01b900460ff16600381111561048257634e487b7160e01b600052602160045260246000fd5b146104a05760405163baf3f0f760e01b815260040160405180910390fd5b6000546104ae90600261052e565b3414806104ba57600080fd5b6040517fd5d55c8a68912e9a110618df8d5e2e83b8d83211c57a8ddd1203df92885dc88190600090a15050600280546001600160a81b0319163360ff60a01b191617600160a01b179055565b602081016004831061052857634e487b7160e01b600052602160045260246000fd5b91905290565b600081600019048311821515161561055457634e487b7160e01b81526011600452602481fd5b50029056fea264697066735822122062bc4d892969916229181e7097a75de8ae14ef5665aa20fead7e0d78438c8f0764736f6c63430008040033",
  "linkReferences": {},
  "deployedLinkReferences": {}
}