{
  "_format": "hh-sol-artifact-1",
  "contractName": "Purchase",
  "sourceName": "contracts/Purchase.sol",
  "abi": [
    {
      "inputs": [
        {
          "internalType": "address",
          "name": "_eventProxy",
          "type": "address"
        }
      ],
      "stateMutability": "payable",
      "type": "constructor"
    },
    {
      "inputs": [],
      "name": "InvalidState",
      "type": "error"
    },
    {
      "inputs": [],
      "name": "OnlyBuyer",
      "type": "error"
    },
    {
      "inputs": [],
      "name": "OnlySeller",
      "type": "error"
    },
    {
      "inputs": [],
      "name": "ValueNotEven",
      "type": "error"
    },
    {
      "inputs": [],
      "name": "abort",
      "outputs": [],
      "stateMutability": "nonpayable",
      "type": "function"
    },
    {
      "inputs": [],
      "name": "buyer",
      "outputs": [
        {
          "internalType": "address payable",
          "name": "",
          "type": "address"
        }
      ],
      "stateMutability": "view",
      "type": "function"
    },
    {
      "inputs": [],
      "name": "confirmPurchase",
      "outputs": [],
      "stateMutability": "payable",
      "type": "function"
    },
    {
      "inputs": [],
      "name": "confirmReceived",
      "outputs": [],
      "stateMutability": "nonpayable",
      "type": "function"
    },
    {
      "inputs": [],
      "name": "eventProxy",
      "outputs": [
        {
          "internalType": "contract IPurchaseEventProxy",
          "name": "",
          "type": "address"
        }
      ],
      "stateMutability": "view",
      "type": "function"
    },
    {
      "inputs": [],
      "name": "refundSeller",
      "outputs": [],
      "stateMutability": "nonpayable",
      "type": "function"
    },
    {
      "inputs": [],
      "name": "seller",
      "outputs": [
        {
          "internalType": "address payable",
          "name": "",
          "type": "address"
        }
      ],
      "stateMutability": "view",
      "type": "function"
    },
    {
      "inputs": [],
      "name": "state",
      "outputs": [
        {
          "internalType": "enum Purchase.State",
          "name": "",
          "type": "uint8"
        }
      ],
      "stateMutability": "view",
      "type": "function"
    },
    {
      "inputs": [],
      "name": "value",
      "outputs": [
        {
          "internalType": "uint256",
          "name": "",
          "type": "uint256"
        }
      ],
      "stateMutability": "view",
      "type": "function"
    }
  ],
  "bytecode": "0x60806040526040516107c63803806107c68339810160408190526100229161008c565b600380546001600160a01b0383166001600160a01b03199182161790915560018054909116331790556100566002346100ba565b600081905534906100689060026100da565b1461008657604051635f1f262160e11b815260040160405180910390fd5b50610105565b60006020828403121561009d578081fd5b81516001600160a01b03811681146100b3578182fd5b9392505050565b6000826100d557634e487b7160e01b81526012600452602481fd5b500490565b600081600019048311821515161561010057634e487b7160e01b81526011600452602481fd5b500290565b6106b2806101146000396000f3fe6080604052600436106100865760003560e01c806373fac6f01161005957806373fac6f01461012357806387dbbdf714610138578063c19d93fb14610158578063c7981b1b14610186578063d69606971461019b57600080fd5b806308551a531461008b57806335a063b4146100c85780633fa4f245146100df5780637150d8ae14610103575b600080fd5b34801561009757600080fd5b506001546100ab906001600160a01b031681565b6040516001600160a01b0390911681526020015b60405180910390f35b3480156100d457600080fd5b506100dd6101a3565b005b3480156100eb57600080fd5b506100f560005481565b6040519081526020016100bf565b34801561010f57600080fd5b506002546100ab906001600160a01b031681565b34801561012f57600080fd5b506100dd6102ce565b34801561014457600080fd5b506003546100ab906001600160a01b031681565b34801561016457600080fd5b5060035461017990600160a01b900460ff1681565b6040516100bf919061061d565b34801561019257600080fd5b506100dd6103f6565b6100dd61052a565b6001546001600160a01b031633146101ce576040516342e8fb9360e11b815260040160405180910390fd5b60008060038054600160a01b900460ff16908111156101fd57634e487b7160e01b600052602160045260246000fd5b1461021b5760405163baf3f0f760e01b815260040160405180910390fd5b6003546040516302718e6960e01b81526001600160a01b03909116906302718e699061024c9060009060040161061d565b600060405180830381600087803b15801561026657600080fd5b505af115801561027a573d6000803e3d6000fd5b50506003805460ff60a01b1916600360a01b17905550506001546040516001600160a01b03909116904780156108fc02916000818181858888f193505050501580156102ca573d6000803e3d6000fd5b5050565b6002546001600160a01b031633146102f9576040516386efbb5560e01b815260040160405180910390fd5b60018060038054600160a01b900460ff169081111561032857634e487b7160e01b600052602160045260246000fd5b146103465760405163baf3f0f760e01b815260040160405180910390fd5b6003546040516302718e6960e01b81526001600160a01b03909116906302718e69906103779060029060040161061d565b600060405180830381600087803b15801561039157600080fd5b505af11580156103a5573d6000803e3d6000fd5b50506003805460ff60a01b1916600160a11b1790555050600254600080546040516001600160a01b039093169281156108fc0292818181858888f193505050501580156102ca573d6000803e3d6000fd5b6001546001600160a01b03163314610421576040516342e8fb9360e11b815260040160405180910390fd5b60028060038054600160a01b900460ff169081111561045057634e487b7160e01b600052602160045260246000fd5b1461046e5760405163baf3f0f760e01b815260040160405180910390fd5b600380546040516302718e6960e01b81526001600160a01b03909116916302718e699161049e919060040161061d565b600060405180830381600087803b1580156104b857600080fd5b505af11580156104cc573d6000803e3d6000fd5b50506003805460ff60a01b1916600360a01b1781556001546000546001600160a01b0390911693506108fc925061050291610630565b6040518115909202916000818181858888f193505050501580156102ca573d6000803e3d6000fd5b60008060038054600160a01b900460ff169081111561055957634e487b7160e01b600052602160045260246000fd5b146105775760405163baf3f0f760e01b815260040160405180910390fd5b600054610585906002610630565b34148061059157600080fd5b6003546040516302718e6960e01b81526001600160a01b03909116906302718e69906105c29060019060040161061d565b600060405180830381600087803b1580156105dc57600080fd5b505af11580156105f0573d6000803e3d6000fd5b5050600280546001600160a01b0319163317905550506003805460ff60a01b1916600160a01b1790555050565b6020810161062a8361065b565b91905290565b600081600019048311821515161561065657634e487b7160e01b81526011600452602481fd5b500290565b6004811061067957634e487b7160e01b600052602160045260246000fd5b5056fea2646970667358221220c3c8b0a29fae4c850bb9e4b85057726862291d48844f481ad846684e13757e2864736f6c63430008040033",
  "linkReferences": {},
  "deployedLinkReferences": {}
}